:0400000031C05FC0EC
:1000040062C0FCCFFBCFFACFF9CFF8CFF7CFF6CF52
:10001400F5CFF4CFF3CFF2CFF1CFF0CFEFCFEECFD8
:10002400EDCF1027E80364000A000100001000016E
:100034001000010074656D702069733A006C696E7C
:10004400652069733A00200080C001002D4E414EA6
:100054000000020092014C00010096014E000000D5
:10006400F894EE27ECBBF1E0FBBFEBBFE5BFF8E192
:10007400F1BDE1BD8DE0A2E0BB27ED938A95E9F7E0
:1000840080E094E0A0E6ED930197E9F7E6E5F0E07F
:1000940085919591009761F0A591B5910590159082
:1000A400BF01F00105900D920197E1F7FB01F0CF3C
:1000B400EFE5EDBFE4E0EEBFC0E6D1E016C0EA93A1
:1000C400EFB7539403C0EA93EFB74394EFBFE991BA
:1000D4001895E881E7B98BE18A95F1F7369A349B54
:1000E400FECF349AE4B1F5B170C1E0E0E1BBE2BB0C
:1000F400E0ECEBBFEFE0E4BF7894E0E0E7B9E6E8DA
:10010400E6B9E0E1EA9337D18ED18DD1D6D0E8E3D8
:10011400F0E08CD188D1E1E0EA93CFD0E1E4F0E0E3
:1001240085D187D1E0936001F0936101609362010E
:10013400709363017ED1E0936401F0936501609351
:1001440066017093670175D1E0936801F0936901CA
:1001540060936A0170936B016CD1E0936C01F0932E
:100164006D0160936E0170936F01E0916401F091F1
:1001740065016091660170916701A0916001B09181
:1001840061018091620190916301D0D2A0E7B1E056
:1001940005D2D9D2E0916801F091690160916A01B8
:1001A40070916B0151D1E0916C01F0916D016091FE
:1001B4006E0170916F0148D15AD1E0E0F0E060E83F
:1001C40070E45ED154D1EAEAF1EF62E070E458D110
:1001D40061D1A0E0B0E080E090E413D2E09370013C
:1001E400F09371016093720170937301E42DE50D36
:1001F400E6957E2EACE07A9E702CE9E0EA9313D16A
:100204005CD0EAE4F0E012D145D191D14CD1E4E7DD
:10021400F1E049D1DCD0E4E7F1E045D17FD0E9E079
:10022400EA93E1E0EA9349D0E72DF0E03CD1E3E83A
:10023400F1E039D1CCD0EAE4F0E0F8D0E3E8F1E041
:1002440032D16CD06ECFFFCFFFE0FA95F1F708956D
:10025400A7B3AF70A7BBC19AC098F6DFC29AF4DF08
:10026400A6B3C298F1DFC29AEFDFC298A7FDF5CF1B
:100274000895A07FAB2BA8BBC29AE6DFC298E4DF47
:100284000895C198A7B3A76FA7BBB8B3BF70A881DF
:10029400F0DFA881A295EDDFC19A97C0C29AD4DF9E
:1002A400E6B3C298D1DFE07F0895CEDFF7DFAE2F4B
:1002B400F5DFC198E295EA2B0895CADFE881F0E002
:1002C400EE56FE4FE081A981EA0FF0D06980988054
:1002D40022960895BDDFE2E0E9D0BADFECE0E6D093
:1002E400B7DFE1E0E3D0E0E09E2E6E2E0895EF93B9
:1002F400FF93A8816894AA3019F0E894681428F050
:10030400939491D09A92D9DF36F06394A1DFC09A86
:10031400A881AA93B6DFFF91EF9157C01A93A981E0
:10032400BA81ED91A983BA831E2FE03019F01A9394
:10033400DEDFF5CF0EC01A93E981FA813196E983A5
:10034400FA833197E4911E2FE03019F01A93CFDF2E
:10035400F3CF188123960895AA27BB271197F1F7A5
:100364000895C198A7B3A76FA7BBB8B3BF70A881FE
:1003740080DFC19A2AC0C298C0988880E881E0587A
:10038400E0939401E881E054E093950191D090D0FA
:100394008FD0E2DFE0E2EA93E4DFDEDFE8E286D05A
:1003A400DBDFE4E083D0D8DFE5E880D0D5DFA7B396
:1003B400AF70A7BBC19A79DFE53011F0E0E005C06A
:1003C40047DFE6E073D086DFE1E021960895A99146
:1003D400B991E991F99130962AF4E095F095319626
:1003E4006DE26D93E89480E197E20DD088EE93E09E
:1003F4000AD084E6992707D08AE005D06E2F10D062
:1004040066276C9308956627E817F90720F063952B
:10041400E81BF90BC9F7662311F416F008956894E4
:10042400605D6D930895E0E0EA930895FA93EA938A
:1004340082CFEAEFF0E0FA93EA933ED0E2E0EA9367
:1004440048DE662777270895A0917001B091710165
:100454008091720190917301A1D0D3D0E093700187
:10046400F093710160937201709373010895A091E8
:100474007001B0917101809172019091730108959E
:1004840010D1E0937001F093710160937201709345
:1004940073010895E0917001F0917101609172010E
:1004A400709173010895FA93EA930895EA93E9CE5B
:1004B40053DFE0E3EA9355CFE991F991309639F0AF
:1004C40080ED97E00197F1F7A8953197C9F7089562
:1004D400552342F4503811F4E0FF04C03196691FEB
:1004E400791F6BF050E8572711F45F93C8C05F3F42
:1004F40031F0660F000C57956795752F08955F933B
:1005040000200AF0C8C0C1C050E8192E1522880F77
:10051400991F9527550F879550E8072E0522660FDA
:10052400771F7527550F67950895689401C0E8945F
:100534005F93F2DF703818F07F3F08F4A0C056E1F3
:10054400571BAAF4519558300EF4593030F0EFEFA0
:10055400FFEF6FEF7FE777F91AC077275523B9F0DC
:10056400EE0FFF1F661F771F5A95D1F710C077272C
:10057400583028F0EF2FF62F672F5850F9CF552316
:1005840031F076956795F795E7955A95D1F7002060
:100594000AF4D1D05F910895689401C0E89430972B
:1005A40060407040B1F0002426F0772312F40094E8
:1005B400C2D0172E7EE1112032F07A95EE0FFF1F84
:1005C400661F111CF9CFEF2FF62F612D5F938ADF81
:1005D4005F9108954F93AF01FD01DA01AB01BC01B6
:1005E400CA01402D012C142E4F910895EA0FFB1FD0
:1005F400681F0895E095F0956095EF5FFF4F6F4F8A
:1006040008955F9381DF903839F1703821F1572FC5
:10061400591B2BF112F4DEDFFACF583118F0AA2758
:10062400BB278827583028F0AB2FB82F882758507D
:10063400F9CF552329F08695B795A7955A95D9F7FB
:10064400502D512572F0D2DF38F46795F795E79570
:10065400739513F420C0BEDF45DF5F910895D8F78A
:10066400FBCFEA1BFB0B680B51F010F40094C2DFC4
:10067400662392F3EE0FFF1F661F7A95CBF7EE27E2
:10068400FF27662777275F910895EFEFFFEF6FE766
:100694007FEF5F910895EFEFFFEF6FE77FE75F91E3
:1006A40008955F9331DF703821F411200AF4EDCFFF
:1006B400F2CF903809F4E3CF01240894970B1BF48C
:1006C400D4F30020F3CF792F1F932F933F934F93AD
:1006D40011241127222733274427552790E2AE17E8
:1006E400BF078607410730F0AE1BBF0B860B410BDB
:1006F400089401C08894551F221F331F111CAA1F80
:10070400BB1F881F441F9A9551F7F901612D4F9122
:100714003F912F911F91662332F0550FEE1FFF1F5B
:10072400661F7A9543F2D4DE5F910895EA0FFB1FAA
:10073400681F791F0895F09560957095E195FF4FB6
:100744006F4F7F4F0895ED93FD936D937C930895C0
:00000001FF
