:0C0000000C942A000C9400000C940000EA
:10000C000C9400000C9400000C9400000C94000064
:10001C000C9400000C9400000C9400000C94000054
:10002C000C9400000C9400000C9400000C94000044
:10003C000C9400000C9400000C9400000C94000034
:10004C000C9400000C940000F894EE27ECBBF1E04B
:10005C00FBBFEBBFE5BFF8E1F1BDE1BD8DE0A2E078
:10006C00BB27ED938A95E9F780E098E0A0E6ED9345
:10007C000197E9F7EFE5EDBFE8E0EEBFC0E6D2E0AF
:10008C000C944800EFEFE4BBE0E0E5BBEFE0E7BB2E
:10009C00E0EFE8BBE8EEF3E0FA93EA930E94DA00B3
:1000AC00E6B3E5BBE6B3E03FA9F34424442011F4E6
:1000BC00EEE0E8BBE1E0E41511F4EDE0E8BBE2E0D2
:1000CC00E41511F4EBE0E8BBE3E0E41511F4E7E030
:1000DC00E8BB56B2E6B3E03F09F44394E6B3E03F25
:1000EC0029F3E0E0E8BBE6B3E03E11F477240AC064
:1000FC00E03D11F4E1E005C0E03B11F4E2E001C0A9
:10010C00E3E07E2E442089F4E72DE03019F4EFE390
:10011C006E2E0BC0E13019F4E6E06E2E06C0E23014
:10012C0019F4EBE56E2E01C06624E1E0E41589F4C8
:10013C00E72DE03019F4EFE46E2E0BC0E13019F42A
:10014C00E6E66E2E06C0E23019F4EDE66E2E01C026
:10015C006624E2E0E41589F4E72DE03019F4EDE7CC
:10016C006E2E0BC0E13019F4E7E06E2E06C0E230C3
:10017C0019F4EFE76E2E01C06624E3E0E41589F470
:10018C00E72DE03019F4EFE66E2E0BC0E13019F4D8
:10019C00E7E76E2E06C0E23019F4ECE76E2E01C0D4
:1001AC00662465BA77CFFFCFE991F991309639F093
:1001BC0080ED97E00197F1F7A8953197C9F708956D
:00000001FF
