:060000000C942A000C9490
:1000060048000C9400000C9400000C9400000C9422
:1000160000000C9400000C9400000C9400000C945A
:1000260000000C9400000C9400000C9400000C944A
:1000360000000C9400000C9400000C9400000C943A
:1000460000000C9400000C9400000C940000F8943E
:10005600EE27ECBBF1E0FBBFEBBFE5BFF8E1F1BD7E
:10006600E1BD8DE0A2E0BB27ED938A95E9F780E03C
:1000760094E0A0E6ED930197E9F7EFE5EDBFE4E044
:10008600EEBFC0E6D1E00C946D000A921A92FA9285
:100096006A937A938A939A93AA93BA93EA93FA9372
:1000A600EFB7EA93E1E0EBBBE8EEF3E0FA93EA930D
:1000B6000E948F00E0E0EBBBE991EFBFF991E99177
:1000C600B991A9919991899179916991F99019902C
:1000D60009901895EFEFE7BBE0E0E8BBEFEFEABB6E
:1000E600E0E0EBBBE1BBEFEFE2BBE0E4EBBFE2E05D
:1000F600E5BF7894E1E0E8BBE4EFF1E0FA93EA9338
:100106000E948F00E0E0E8BBE4EFF1E0FA93EA93A7
:100116000E948F00EFCFFFCFE991F991309639F029
:1001260080ED97E00197F1F7A8953197C9F7089503
:00000001FF
