:0A0000000C942B000C9400000C94EB
:10000A0000000C9400000C9400000C9400000C9466
:10001A0000000C9400000C9400000C9400000C9456
:10002A0000000C9400000C9400000C9400000C9446
:10003A0000000C9400000C9400000C9400000C9436
:10004A0000000C9400000C9400000000F894EE27C5
:10005A00ECBBF1E0FBBFEBBFE5BFF8E1F1BDF0E1BE
:10006A00F1BD8DE0A2E0BB27ED938A95E9F780E028
:10007A0098E0A0E6ED930197E9F7E4E5F0E0059052
:10008A001590BF01F001309751F0A591B591859176
:10009A00959105900D920197E1F7FB01F0CFEFE5FD
:1000AA00EDBFE8E0EEBFC0E6D2E00C945C00889AAF
:1000BA00909A04D0909802D0FACFFFCFE8ECF0E003
:1000CA00FA93EA930C946900E991F991309639F020
:1000DA0088EE93E00197F1F7A8953197C9F708954B
:00000001FF
