:1000000000308A006A2900002C3084008313000825
:10001000031917280630F800F701F70B0D28F80B25
:100020000C287B30F700F70B1328800B0A280034CC
:100030000130AC0004208316860183122B08860051
:10004000221022088316870083120710A2102208AC
:1000500083168700831287102211220883168700D7
:1000600083120715000022112208831687008312CD
:10007000071100340F30A3003830A4000130A50070
:100080000230A6008030A7000C30A800A901290882
:10009000053C031C58280630AC00042023302907F7
:1000A000840083130008AA00AB001820A90A47287F
:1000B0008A110A12B1290130AC000420831686018E
:1000C00083122308860022102208831687008312D9
:1000D0000714A210220883168700831287102211AA
:1000E00022088316870083120715000022112208B8
:1000F0008316870083120711003405148316051038
:10010000831285108316851083120511831605113D
:10011000831285118316851105168312051E9828F2
:10012000831605168312051A90283130A3005B2030
:10013000831685168312851EA528831685168312BD
:10014000851A9D283230A3005B20A217220883164F
:1001500087008312871FB628A217220883168700FC
:100160008312871BAC283330A3005B200510831655
:1001700005108312851483168510831205118316CA
:100180000511831285118316851105168312051E2C
:10019000D128831605168312051AC9283430A30006
:1001A0005B20831685168312851EDE28831685162E
:1001B0008312851AD6283530A3005B20A2172208A7
:1001C000831687008312871FEF28A2172208831641
:1001D00087008312871BE5283630A3005B200510BB
:1001E000831605108312851083168510831205155A
:1001F0008316051183128511831685110516831246
:10020000051E0A29831605168312051A022937309E
:10021000A3005B20831685168312851E172983167B
:1002200085168312851A0F293830A3005B20A21788
:100230002208831687008312871F2829A217220805
:10024000831687008312871B1E293930A3005B2089
:1002500005108316051083128510831685108312EE
:100260000511831605118312851583168511051650
:100270008312051E4329831605168312051A3B298E
:100280002A30A3005B20831685168312851E502911
:10029000831685168312851A48293030A3005B2007
:1002A000A2172208831687008312871F6729A217C7
:1002B0002208831687008312871B57292330A30047
:1002C0005B200130AB0018208030AB0018208A1171
:1002D0000A12B229840183131F30830583161F1469
:1002E0009F141F159F1107309C008312A001A101CC
:1002F000FF30A200831681131F149F141F159F1136
:1003000083121F109412A2122208831687008312F0
:1003100022162208831687008312A2112208831650
:100320008700003083129400831694000108C739B7
:1003300008388100831290010030F80092000030EC
:100340008316920007309C0005081030F700F70B69
:10035000A72900001C0883120D1383169D01831228
:080360003A287D28B129630051
:02400E00FA3F77
:00000001FF
;PIC16F876A
