:0E0000000C9436000C9400000C9400000C943C
:10000E0000000C9400000C9400000C9400000C9462
:10001E0000000C9400000C9400000C9400000C9452
:10002E0000000C9400000C9400000C9400000C9442
:10003E0000000C9400000C9400000C9400000C9432
:10004E0000000C9400003F065B4F666D7D077F6FCE
:10005E00777C395E79711000600254000000F894CC
:10006E00EE27ECBBF1E0FBBFEBBFE5BFF8E1F1BD66
:10007E00E1BD8DE0A2E0BB27ED938A95E9F780E024
:10008E0098E0A0E6ED930197E9F7E4E6F0E08591BC
:10009E009591009761F0A591B59105901590BF01CE
:1000AE00F00105900D920197E1F7FB01F0CFEFE51E
:1000BE00EDBFE8E0EEBFC0E6D2E00C946600EFEFD5
:1000CE00E1BBE0E0E2BB4424EAE04E1680F45524A6
:1000DE00EAE05E1650F4E42D0BD00FD0E52D08D0DB
:1000EE00E0680BD053945394F3CF4394EDCFFFCFEE
:1000FE00F0E0E05AFD4FE0810895E2BBE4E1F0E06C
:10010E00FA93EA930C948B00E991F991309639F0B9
:10011E0080ED97E00197F1F7A8953197C9F708950B
:00000001FF
