:0A0000000C9436000C9400000C94E0
:10000A0000000C9400000C9400000C9400000C9466
:10001A0000000C9400000C9400000C9400000C9456
:10002A0000000C9400000C9400000C9400000C9446
:10003A0000000C9400000C9400000C9400000C9436
:10004A00C1000C9400000C9400003F065B4F666DE3
:10005A007D077F6F777C395E7971100060025400EA
:10006A000000F894EE27ECBBF1E0FBBFEBBFE5BF65
:10007A00F8E1F1BDE1BD8DE0A2E0BB27ED938A95E1
:10008A00E9F780E098E0A0E6ED930197E9F7E4E666
:10009A00F0E085919591009761F0A591B591059051
:1000AA001590BF01F00105900D920197E1F7FB0150
:1000BA00F0CFEFE5EDBFE8E0EEBFC0E6D2E00C948A
:1000CA00E200E0EFE4BBEFE0E5BB08951A930A9380
:1000DA00EFEEB0D089F0E12FEE3011F407E047C01F
:1000EA00ED3011F404E043C0EB3011F401E03FC0FD
:1000FA00E73011F40AE03BC0EFED9CD079F0E12F34
:10010A00EE3011F408E033C0ED3011F405E02FC0F1
:10011A00EB3011F402E02BC0E73041F1EFEB8AD06B
:10012A0089F0E12FEE3011F409E021C0ED3011F42D
:10013A0006E01DC0EB3011F403E019C0E73011F4FA
:10014A000BE015C0EFE776D089F0E12FEE3011F41D
:10015A000CE00DC0ED3011F40DE009C0EB3011F4E4
:10016A000EE005C0E73011F40FE001C000E0A9DF9E
:10017A00E02F0991199108950A921A92FA926A93B4
:10018A007A938A939A93AA93BA93EA93FA93EFB7D4
:10019A00EA939CDF58D0EBBBE8EEF3E059D0E99143
:1001AA00EFBFF991E991B991A991999189917991C1
:1001BA006991F990199009901895E0E0E1BBEFEF89
:1001CA00E2BBEABBE0E0EBBBE0EFE4BBEFE0E5BBA0
:1001DA00E0E0E7BBE8BBE0E2EBBFE0E0E4BF5524C8
:1001EA007894E0916D02EBBBE4E1F0E031D0E0E01D
:1001FA008099E1E06E2FA0E08199A1E0E2E0EA9F18
:10020A00F0016E0FA0E08299A1E0E4E0EA9FF0011C
:10021A006E0FA0E08399A1E0E8E0EA9FF001E60F03
:10022A005E2EE52D10D0E068EBBBE4E1F0E010D0E3
:10023A00D8CFFFCFE5BB8BE18A95F1F7E3B3EF7037
:10024A001E2F1F300895F0E0E05AFD4FE081089517
:10025A00FA93EA930C943101E991F991309639F0C5
:10026A0080ED97E00197F1F7A8953197C9F70895BE
:00000001FF
