:020000000C945E
:1000020041000C9400000C9400000C9400000C942D
:1000120000000C9400000C9400000C9400000C945E
:1000220000000C9400000C9400000C9400000C944E
:1000320000000C9400000C9400000C9400000C943E
:1000420000000C9400000C9400000C9400000C942E
:100052000000EEDECEBEEDDDCDBDECDCCCBCEBDBDC
:10006200CBBB3F065B4F666D7D077F6F777C395E4A
:1000720079711000600254001000700264000000E8
:10008200F894EE27ECBBF1E0FBBFEBBFE5BFF8E174
:10009200F1BDE1BD8DE0A2E0BB27ED938A95E9F7C2
:1000A20080E098E0A0E6ED930197E9F7E4E7F0E05D
:1000B20085919591009761F0A591B5910590159064
:1000C200BF01F00105900D920197E1F7FB01F0CF1E
:1000D200EFE5EDBFE8E0EEBFC0E6D2E00C947100C0
:1000E200EFEFE4BB552435D0E059FD4FE081E5BB8D
:1000F200EFE0E7BBE0EFE8BBE6B3E07FE03FE1F330
:10010200E4E1F0E0FA93EA930E94AD00E6B3EF7007
:100112004E2EE0EFE7BBEFE0E8BBE6B3EF704E2A0E
:100122005524E0E15E1698F414D0E05AFD4FE081C8
:10013200E41559F40ED0E059FD4FE081E5BBE8EE3D
:10014200F3E0FA93EA930E94AD005394EACFD0CF42
:10015200FFCFE52DF0E00895E991F991309639F05D
:1001620080ED97E00197F1F7A8953197C9F70895C7
:00000001FF
