:060000000C942A000C9490
:1000060000000C9400000C9400000C9400000C946A
:1000160000000C9400000C9400000C9400000C945A
:1000260000000C9400000C9400000C9400000C944A
:1000360000000C9400000C9400000C9400000C943A
:1000460000000C9400000C9400000C940000F8943E
:10005600EE27ECBBF1E0FBBFEBBFE5BFF8E1F1BD7E
:10006600E1BD8DE0A2E0BB27ED938A95E9F780E03C
:1000760098E0A0E6ED930197E9F7EFE5EDBFE8E03C
:10008600EEBFC0E6D2E00C944800EFEFE7BBE0E03D
:10009600EABBEBBBE1EEE7B9E6E8E6B9E0E0E0BFD4
:1000A600369A349BFECF349AE5B1E8BBF9CFFFCF41
:00000001FF
