:0800000012C0FECFFDCFFCCFC2
:10000800FBCFFACFF9CFF8CFF7CFF6CFF5CFF4CFB4
:10001800F3CFF2CFF1CFF0CFEFCFEECFEDCFF89413
:10002800EE27ECBBF1E0FBBFEBBFE5BFF8E1F1BDAC
:10003800E1BD8DE0A2E0BB27ED938A95E9F780E06A
:1000480094E0A0E6ED930197E9F7EFE5EDBFE4E072
:10005800EEBFC0E6D1E007C0EAE003C0E9E001C0B6
:10006800E6E0E5BB0895E0E0E8BBE7BBE5BBEFE011
:10007800E4BBE0E0E2BBE1BBE3BFE2BFEFBDEEBD46
:10008800EDBDECBDE7BDE6BDEBBDEABDE9BDE8BD34
:10009800E2BDE5BDE4BDE3BDE5BFE9BFE0E8E8B921
:1000A800E0E0E0BFEFE15E2EE0B35E22E4E0E515BC
:1000B80009F4D2DFEEE0E51509F4CEDFECE0E51552
:1000C80009F4CEDFE8E0E51509F4CADFE0E1E5155B
:1000D80009F4C6DFE8E1E51509F4C2DFECE1E5154E
:1000E80009F4BEDFE1E0E51509F4B8DFE3E0E51562
:1000F80009F4B4DFE7E0E51509F4B0DFE6E0E5155B
:1001080009F4ACDFE2E0E51509F4A8DFEBEFE5154B
:1001180009F4A2DFE1EFE51509F49EDFE3EFE51549
:1001280009F49EDFE7EFE51509F49ADFEFEEE51530
:1001380009F496DFE7EEE51509F492DFE3EEE5153D
:1001480009F48EDFEEEFE51509F488DFECEFE5152D
:1001580009F484DFE8EFE51509F480DFE9EFE51538
:1001680009F47CDFEDEFE51509F478DF9BCFFFCFCD
:00000001FF
